{
  "_format": "hh-sol-artifact-1",
  "contractName": "DAO",
  "sourceName": "contracts/DAO.sol",
  "abi": [
    {
      "inputs": [
        {
          "internalType": "address",
          "name": "GovernorToken",
          "type": "address"
        }
      ],
      "stateMutability": "payable",
      "type": "constructor"
    },
    {
      "stateMutability": "payable",
      "type": "fallback"
    },
    {
      "inputs": [],
      "name": "Governor",
      "outputs": [
        {
          "internalType": "address",
          "name": "",
          "type": "address"
        }
      ],
      "stateMutability": "view",
      "type": "function"
    },
    {
      "inputs": [],
      "name": "account",
      "outputs": [
        {
          "internalType": "address",
          "name": "",
          "type": "address"
        }
      ],
      "stateMutability": "view",
      "type": "function"
    },
    {
      "inputs": [
        {
          "internalType": "uint256",
          "name": "_proposalId",
          "type": "uint256"
        },
        {
          "internalType": "uint256",
          "name": "votes",
          "type": "uint256"
        }
      ],
      "name": "addNoVotes",
      "outputs": [],
      "stateMutability": "nonpayable",
      "type": "function"
    },
    {
      "inputs": [
        {
          "internalType": "uint256",
          "name": "_proposalId",
          "type": "uint256"
        },
        {
          "internalType": "uint256",
          "name": "votes",
          "type": "uint256"
        }
      ],
      "name": "addYesVotes",
      "outputs": [],
      "stateMutability": "nonpayable",
      "type": "function"
    },
    {
      "inputs": [
        {
          "internalType": "string",
          "name": "_title",
          "type": "string"
        },
        {
          "internalType": "uint256",
          "name": "_amount",
          "type": "uint256"
        },
        {
          "internalType": "address",
          "name": "_addressTo",
          "type": "address"
        },
        {
          "internalType": "string",
          "name": "_description",
          "type": "string"
        }
      ],
      "name": "createProposal",
      "outputs": [
        {
          "internalType": "uint256",
          "name": "",
          "type": "uint256"
        }
      ],
      "stateMutability": "nonpayable",
      "type": "function"
    },
    {
      "inputs": [
        {
          "internalType": "uint256",
          "name": "proposalIndex",
          "type": "uint256"
        }
      ],
      "name": "executeProposal",
      "outputs": [],
      "stateMutability": "nonpayable",
      "type": "function"
    },
    {
      "inputs": [],
      "name": "getBalance",
      "outputs": [
        {
          "internalType": "uint256",
          "name": "balance",
          "type": "uint256"
        }
      ],
      "stateMutability": "view",
      "type": "function"
    },
    {
      "inputs": [],
      "name": "numProposals",
      "outputs": [
        {
          "internalType": "uint256",
          "name": "",
          "type": "uint256"
        }
      ],
      "stateMutability": "view",
      "type": "function"
    },
    {
      "inputs": [
        {
          "internalType": "uint256",
          "name": "",
          "type": "uint256"
        }
      ],
      "name": "proposals",
      "outputs": [
        {
          "internalType": "uint256",
          "name": "proposalId",
          "type": "uint256"
        },
        {
          "internalType": "uint256",
          "name": "amount",
          "type": "uint256"
        },
        {
          "internalType": "uint256",
          "name": "deadline",
          "type": "uint256"
        },
        {
          "internalType": "uint256",
          "name": "yesVotes",
          "type": "uint256"
        },
        {
          "internalType": "uint256",
          "name": "noVotes",
          "type": "uint256"
        },
        {
          "internalType": "string",
          "name": "title",
          "type": "string"
        },
        {
          "internalType": "string",
          "name": "description",
          "type": "string"
        },
        {
          "internalType": "address",
          "name": "addressTo",
          "type": "address"
        },
        {
          "internalType": "bool",
          "name": "executed",
          "type": "bool"
        }
      ],
      "stateMutability": "view",
      "type": "function"
    },
    {
      "inputs": [],
      "name": "rate",
      "outputs": [
        {
          "internalType": "uint256",
          "name": "",
          "type": "uint256"
        }
      ],
      "stateMutability": "view",
      "type": "function"
    },
    {
      "inputs": [
        {
          "internalType": "uint256",
          "name": "amount",
          "type": "uint256"
        }
      ],
      "name": "swapETHForGT",
      "outputs": [],
      "stateMutability": "payable",
      "type": "function"
    },
    {
      "inputs": [
        {
          "internalType": "address",
          "name": "src",
          "type": "address"
        },
        {
          "internalType": "address",
          "name": "dst",
          "type": "address"
        },
        {
          "internalType": "uint256",
          "name": "amount",
          "type": "uint256"
        }
      ],
      "name": "swapGTForETH",
      "outputs": [],
      "stateMutability": "nonpayable",
      "type": "function"
    },
    {
      "inputs": [
        {
          "internalType": "uint256",
          "name": "proposalIndex",
          "type": "uint256"
        },
        {
          "internalType": "enum DAO.Vote",
          "name": "vote",
          "type": "uint8"
        }
      ],
      "name": "voteOnProposal",
      "outputs": [],
      "stateMutability": "nonpayable",
      "type": "function"
    },
    {
      "stateMutability": "payable",
      "type": "receive"
    }
  ],
  "bytecode": "0x608060405273dd2fd4581271e230360230f9337d5c0430bf44c0600260006101000a81548173ffffffffffffffffffffffffffffffffffffffff021916908373ffffffffffffffffffffffffffffffffffffffff160217905550606460035560405162001d6d38038062001d6d8339818101604052810190620000839190620000e1565b806000806101000a81548173ffffffffffffffffffffffffffffffffffffffff021916908373ffffffffffffffffffffffffffffffffffffffff160217905550506200015b565b600081519050620000db8162000141565b92915050565b600060208284031215620000f457600080fd5b60006200010484828501620000ca565b91505092915050565b60006200011a8262000121565b9050919050565b600073ffffffffffffffffffffffffffffffffffffffff82169050919050565b6200014c816200010d565b81146200015857600080fd5b50565b611c02806200016b6000396000f3fe6080604052600436106100c65760003560e01c8063400e39491161007f57806364f402c91161005957806364f402c9146102645780637f9d7a8d1461028f578063dbc151bc146102cc578063efafb22e146102e8576100cd565b8063400e3949146101e55780634239cc9b146102105780635dab242014610239576100cd565b8063013cf08b146100cf57806309b795c7146101145780630d61b5191461013d57806312065fe01461016657806316d77228146101915780632c4e722e146101ba576100cd565b366100cd57005b005b3480156100db57600080fd5b506100f660048036038101906100f1919061132b565b610311565b60405161010b9998979695949392919061164f565b60405180910390f35b34801561012057600080fd5b5061013b600480360381019061013691906113b9565b61049c565b005b34801561014957600080fd5b50610164600480360381019061015f919061132b565b6105c5565b005b34801561017257600080fd5b5061017b6108b0565b6040516101889190611634565b60405180910390f35b34801561019d57600080fd5b506101b860048036038101906101b39190611220565b610961565b005b3480156101c657600080fd5b506101cf610966565b6040516101dc9190611634565b60405180910390f35b3480156101f157600080fd5b506101fa61096c565b6040516102079190611634565b60405180910390f35b34801561021c57600080fd5b50610237600480360381019061023291906113b9565b610972565b005b34801561024557600080fd5b5061024e610a9b565b60405161025b9190611519565b60405180910390f35b34801561027057600080fd5b50610279610ac1565b6040516102869190611519565b60405180910390f35b34801561029b57600080fd5b506102b660048036038101906102b19190611298565b610ae7565b6040516102c39190611634565b60405180910390f35b6102e660048036038101906102e1919061132b565b610cbc565b005b3480156102f457600080fd5b5061030f600480360381019061030a919061137d565b610ece565b005b600460205280600052604060002060009150905080600001549080600101549080600201549080600301549080600401549080600501805461035290611931565b80601f016020809104026020016040519081016040528092919081815260200182805461037e90611931565b80156103cb5780601f106103a0576101008083540402835291602001916103cb565b820191906000526020600020905b8154815290600101906020018083116103ae57829003601f168201915b5050505050908060060180546103e090611931565b80601f016020809104026020016040519081016040528092919081815260200182805461040c90611931565b80156104595780601f1061042e57610100808354040283529160200191610459565b820191906000526020600020905b81548152906001019060200180831161043c57829003601f168201915b5050505050908060070160009054906101000a900473ffffffffffffffffffffffffffffffffffffffff16908060070160149054906101000a900460ff16905089565b600060046000848152602001908152602001600020905060018160080160003373ffffffffffffffffffffffffffffffffffffffff1673ffffffffffffffffffffffffffffffffffffffff16815260200190815260200160002060006101000a81548160ff021916908315150217905561054b576040517f08c379a0000000000000000000000000000000000000000000000000000000008152600401610542906115f4565b60405180910390fd5b8181600301600082825461055f919061175c565b9250508190555060018160080160003373ffffffffffffffffffffffffffffffffffffffff1673ffffffffffffffffffffffffffffffffffffffff16815260200190815260200160002060006101000a81548160ff021916908315150217905550505050565b80426004600083815260200190815260200160002060020154111561061f576040517f08c379a000000000000000000000000000000000000000000000000000000000815260040161061690611594565b60405180910390fd5b600015156004600083815260200190815260200160002060070160149054906101000a900460ff16151514610689576040517f08c379a0000000000000000000000000000000000000000000000000000000008152600401610680906115b4565b60405180910390fd5b600060046000848152602001908152602001600020905060008054906101000a900473ffffffffffffffffffffffffffffffffffffffff1673ffffffffffffffffffffffffffffffffffffffff166370a08231306040518263ffffffff1660e01b81526004016106f99190611519565b60206040518083038186803b15801561071157600080fd5b505afa158015610725573d6000803e3d6000fd5b505050506040513d601f19601f820116820180604052508101906107499190611354565b81600101541061078e576040517f08c379a000000000000000000000000000000000000000000000000000000000815260040161078590611614565b60405180910390fd5b6000670de0b6b3a764000082600101546107a891906117e3565b905081600401548260030154111561088d5760008054906101000a900473ffffffffffffffffffffffffffffffffffffffff1673ffffffffffffffffffffffffffffffffffffffff1663a9059cbb8360070160009054906101000a900473ffffffffffffffffffffffffffffffffffffffff16836040518363ffffffff1660e01b815260040161083992919061156b565b602060405180830381600087803b15801561085357600080fd5b505af1158015610867573d6000803e3d6000fd5b505050506040513d601f19601f8201168201806040525081019061088b919061126f565b505b60018260070160146101000a81548160ff02191690831515021790555050505050565b60008060009054906101000a900473ffffffffffffffffffffffffffffffffffffffff1673ffffffffffffffffffffffffffffffffffffffff166370a08231336040518263ffffffff1660e01b815260040161090c9190611519565b60206040518083038186803b15801561092457600080fd5b505afa158015610938573d6000803e3d6000fd5b505050506040513d601f19601f8201168201806040525081019061095c9190611354565b905090565b505050565b60035481565b60055481565b600060046000848152602001908152602001600020905060018160080160003373ffffffffffffffffffffffffffffffffffffffff1673ffffffffffffffffffffffffffffffffffffffff16815260200190815260200160002060006101000a81548160ff0219169083151502179055610a21576040517f08c379a0000000000000000000000000000000000000000000000000000000008152600401610a18906115f4565b60405180910390fd5b81816004016000828254610a35919061175c565b9250508190555060018160080160003373ffffffffffffffffffffffffffffffffffffffff1673ffffffffffffffffffffffffffffffffffffffff16815260200190815260200160002060006101000a81548160ff021916908315150217905550505050565b600260009054906101000a900473ffffffffffffffffffffffffffffffffffffffff1681565b600160009054906101000a900473ffffffffffffffffffffffffffffffffffffffff1681565b600080600460006005548152602001908152602001600020905060008054906101000a900473ffffffffffffffffffffffffffffffffffffffff1673ffffffffffffffffffffffffffffffffffffffff166370a08231306040518263ffffffff1660e01b8152600401610b5a9190611519565b60206040518083038186803b158015610b7257600080fd5b505afa158015610b86573d6000803e3d6000fd5b505050506040513d601f19601f82011682018060405250810190610baa9190611354565b8510610beb576040517f08c379a0000000000000000000000000000000000000000000000000000000008152600401610be290611614565b60405180910390fd5b600554816000018190555084816001018190555061025842610c0d919061175c565b8160020181905550838160070160006101000a81548173ffffffffffffffffffffffffffffffffffffffff021916908373ffffffffffffffffffffffffffffffffffffffff16021790555085816005019080519060200190610c709291906110ac565b5082816006019080519060200190610c899291906110ac565b5060056000815480929190610c9d90611994565b91905055506001600554610cb1919061183d565b915050949350505050565b6000670de0b6b3a764000060035483610cd591906117e3565b610cdf91906117e3565b90508060008054906101000a900473ffffffffffffffffffffffffffffffffffffffff1673ffffffffffffffffffffffffffffffffffffffff166370a08231306040518263ffffffff1660e01b8152600401610d3b9190611519565b60206040518083038186803b158015610d5357600080fd5b505afa158015610d67573d6000803e3d6000fd5b505050506040513d601f19601f82011682018060405250810190610d8b9190611354565b1015610d9657600080fd5b60035481610da491906117b2565b3373ffffffffffffffffffffffffffffffffffffffff163111610dc657600080fd5b60008054906101000a900473ffffffffffffffffffffffffffffffffffffffff1673ffffffffffffffffffffffffffffffffffffffff166323b872dd3033846040518463ffffffff1660e01b8152600401610e2393929190611534565b602060405180830381600087803b158015610e3d57600080fd5b505af1158015610e51573d6000803e3d6000fd5b505050506040513d601f19601f82011682018060405250810190610e75919061126f565b503373ffffffffffffffffffffffffffffffffffffffff166108fc60035483610e9e91906117b2565b9081150290604051600060405180830381858888f19350505050158015610ec9573d6000803e3d6000fd5b505050565b8142600460008381526020019081526020016000206002015411610f27576040517f08c379a0000000000000000000000000000000000000000000000000000000008152600401610f1e906115d4565b60405180910390fd5b600060046000858152602001908152602001600020905060008060008054906101000a900473ffffffffffffffffffffffffffffffffffffffff1673ffffffffffffffffffffffffffffffffffffffff166370a08231336040518263ffffffff1660e01b8152600401610f9a9190611519565b60206040518083038186803b158015610fb257600080fd5b505afa158015610fc6573d6000803e3d6000fd5b505050506040513d601f19601f82011682018060405250810190610fea9190611354565b905080915060006001811115611029577f4e487b7100000000000000000000000000000000000000000000000000000000600052602160045260246000fd5b856001811115611062577f4e487b7100000000000000000000000000000000000000000000000000000000600052602160045260246000fd5b1415611088578183600301600082825461107c919061175c565b925050819055506110a4565b8183600401600082825461109c919061175c565b925050819055505b505050505050565b8280546110b890611931565b90600052602060002090601f0160209004810192826110da5760008555611121565b82601f106110f357805160ff1916838001178555611121565b82800160010185558215611121579182015b82811115611120578251825591602001919060010190611105565b5b50905061112e9190611132565b5090565b5b8082111561114b576000816000905550600101611133565b5090565b600061116261115d8461170f565b6116ea565b90508281526020810184848401111561117a57600080fd5b6111858482856118ef565b509392505050565b60008135905061119c81611b77565b92915050565b6000815190506111b181611b8e565b92915050565b6000813590506111c681611ba5565b92915050565b600082601f8301126111dd57600080fd5b81356111ed84826020860161114f565b91505092915050565b60008135905061120581611bb5565b92915050565b60008151905061121a81611bb5565b92915050565b60008060006060848603121561123557600080fd5b60006112438682870161118d565b93505060206112548682870161118d565b9250506040611265868287016111f6565b9150509250925092565b60006020828403121561128157600080fd5b600061128f848285016111a2565b91505092915050565b600080600080608085870312156112ae57600080fd5b600085013567ffffffffffffffff8111156112c857600080fd5b6112d4878288016111cc565b94505060206112e5878288016111f6565b93505060406112f68782880161118d565b925050606085013567ffffffffffffffff81111561131357600080fd5b61131f878288016111cc565b91505092959194509250565b60006020828403121561133d57600080fd5b600061134b848285016111f6565b91505092915050565b60006020828403121561136657600080fd5b60006113748482850161120b565b91505092915050565b6000806040838503121561139057600080fd5b600061139e858286016111f6565b92505060206113af858286016111b7565b9150509250929050565b600080604083850312156113cc57600080fd5b60006113da858286016111f6565b92505060206113eb858286016111f6565b9150509250929050565b6113fe816118b9565b82525050565b61140d81611871565b82525050565b61141c81611883565b82525050565b600061142d82611740565b611437818561174b565b93506114478185602086016118fe565b61145081611a99565b840191505092915050565b600061146860158361174b565b915061147382611aaa565b602082019050919050565b600061148b60198361174b565b915061149682611ad3565b602082019050919050565b60006114ae60118361174b565b91506114b982611afc565b602082019050919050565b60006114d1600d8361174b565b91506114dc82611b25565b602082019050919050565b60006114f460198361174b565b91506114ff82611b4e565b602082019050919050565b611513816118af565b82525050565b600060208201905061152e6000830184611404565b92915050565b600060608201905061154960008301866113f5565b61155660208301856113f5565b611563604083018461150a565b949350505050565b60006040820190506115806000830185611404565b61158d602083018461150a565b9392505050565b600060208201905081810360008301526115ad8161145b565b9050919050565b600060208201905081810360008301526115cd8161147e565b9050919050565b600060208201905081810360008301526115ed816114a1565b9050919050565b6000602082019050818103600083015261160d816114c4565b9050919050565b6000602082019050818103600083015261162d816114e7565b9050919050565b6000602082019050611649600083018461150a565b92915050565b600061012082019050611665600083018c61150a565b611672602083018b61150a565b61167f604083018a61150a565b61168c606083018961150a565b611699608083018861150a565b81810360a08301526116ab8187611422565b905081810360c08301526116bf8186611422565b90506116ce60e0830185611404565b6116dc610100830184611413565b9a9950505050505050505050565b60006116f4611705565b90506117008282611963565b919050565b6000604051905090565b600067ffffffffffffffff82111561172a57611729611a6a565b5b61173382611a99565b9050602081019050919050565b600081519050919050565b600082825260208201905092915050565b6000611767826118af565b9150611772836118af565b9250827fffffffffffffffffffffffffffffffffffffffffffffffffffffffffffffffff038211156117a7576117a66119dd565b5b828201905092915050565b60006117bd826118af565b91506117c8836118af565b9250826117d8576117d7611a0c565b5b828204905092915050565b60006117ee826118af565b91506117f9836118af565b9250817fffffffffffffffffffffffffffffffffffffffffffffffffffffffffffffffff0483118215151615611832576118316119dd565b5b828202905092915050565b6000611848826118af565b9150611853836118af565b925082821015611866576118656119dd565b5b828203905092915050565b600061187c8261188f565b9050919050565b60008115159050919050565b600073ffffffffffffffffffffffffffffffffffffffff82169050919050565b6000819050919050565b60006118c4826118cb565b9050919050565b60006118d6826118dd565b9050919050565b60006118e88261188f565b9050919050565b82818337600083830152505050565b60005b8381101561191c578082015181840152602081019050611901565b8381111561192b576000848401525b50505050565b6000600282049050600182168061194957607f821691505b6020821081141561195d5761195c611a3b565b5b50919050565b61196c82611a99565b810181811067ffffffffffffffff8211171561198b5761198a611a6a565b5b80604052505050565b600061199f826118af565b91507fffffffffffffffffffffffffffffffffffffffffffffffffffffffffffffffff8214156119d2576119d16119dd565b5b600182019050919050565b7f4e487b7100000000000000000000000000000000000000000000000000000000600052601160045260246000fd5b7f4e487b7100000000000000000000000000000000000000000000000000000000600052601260045260246000fd5b7f4e487b7100000000000000000000000000000000000000000000000000000000600052602260045260246000fd5b7f4e487b7100000000000000000000000000000000000000000000000000000000600052604160045260246000fd5b6000601f19601f8301169050919050565b7f444541444c494e455f4e4f545f45584345454445440000000000000000000000600082015250565b7f50524f504f53414c5f414c52454144595f455845435554454400000000000000600082015250565b7f444541444c494e455f4558434545444544000000000000000000000000000000600082015250565b7f416c726561647920766f74656400000000000000000000000000000000000000600082015250565b7f4e6f7420656e6f75676820476f7665726e6f7220746f6b656e00000000000000600082015250565b611b8081611871565b8114611b8b57600080fd5b50565b611b9781611883565b8114611ba257600080fd5b50565b60028110611bb257600080fd5b50565b611bbe816118af565b8114611bc957600080fd5b5056fea2646970667358221220932061abb3ce949e5bb42d2094df7c304658c59c17d672f569430f3a9823893a64736f6c63430008040033",
  "linkReferences": {},
  "deployedLinkReferences": {}
}